{
    "_format": "hh-sol-artifact-1",
    "contractName": "Web3RSVP",
    "sourceName": "contracts/Web3RSVP.sol",
    "abi": [
        {
            "anonymous": false,
            "inputs": [
                {
                    "indexed": false,
                    "internalType": "bytes32",
                    "name": "eventID",
                    "type": "bytes32"
                },
                {
                    "indexed": false,
                    "internalType": "address",
                    "name": "attendeeAddress",
                    "type": "address"
                }
            ],
            "name": "ConfirmedAttendee",
            "type": "event"
        },
        {
            "anonymous": false,
            "inputs": [
                {
                    "indexed": false,
                    "internalType": "bytes32",
                    "name": "eventID",
                    "type": "bytes32"
                }
            ],
            "name": "DepositsPaidOut",
            "type": "event"
        },
        {
            "anonymous": false,
            "inputs": [
                {
                    "indexed": false,
                    "internalType": "bytes32",
                    "name": "eventID",
                    "type": "bytes32"
                },
                {
                    "indexed": false,
                    "internalType": "address",
                    "name": "creatorAddress",
                    "type": "address"
                },
                {
                    "indexed": false,
                    "internalType": "uint256",
                    "name": "eventTimestamp",
                    "type": "uint256"
                },
                {
                    "indexed": false,
                    "internalType": "uint256",
                    "name": "maxCapacity",
                    "type": "uint256"
                },
                {
                    "indexed": false,
                    "internalType": "uint256",
                    "name": "deposit",
                    "type": "uint256"
                },
                {
                    "indexed": false,
                    "internalType": "string",
                    "name": "eventDataCID",
                    "type": "string"
                }
            ],
            "name": "NewEventCreated",
            "type": "event"
        },
        {
            "anonymous": false,
            "inputs": [
                {
                    "indexed": false,
                    "internalType": "bytes32",
                    "name": "eventID",
                    "type": "bytes32"
                },
                {
                    "indexed": false,
                    "internalType": "address",
                    "name": "attendeeAddress",
                    "type": "address"
                }
            ],
            "name": "NewRSVP",
            "type": "event"
        },
        {
            "inputs": [
                {
                    "internalType": "bytes32",
                    "name": "eventId",
                    "type": "bytes32"
                }
            ],
            "name": "confirmAllAttendees",
            "outputs": [],
            "stateMutability": "nonpayable",
            "type": "function"
        },
        {
            "inputs": [
                {
                    "internalType": "bytes32",
                    "name": "eventId",
                    "type": "bytes32"
                },
                {
                    "internalType": "address",
                    "name": "attendee",
                    "type": "address"
                }
            ],
            "name": "confirmAttendee",
            "outputs": [],
            "stateMutability": "nonpayable",
            "type": "function"
        },
        {
            "inputs": [
                {
                    "internalType": "uint256",
                    "name": "eventTimestamp",
                    "type": "uint256"
                },
                {
                    "internalType": "uint256",
                    "name": "deposit",
                    "type": "uint256"
                },
                {
                    "internalType": "uint256",
                    "name": "maxCapacity",
                    "type": "uint256"
                },
                {
                    "internalType": "string",
                    "name": "eventDataCID",
                    "type": "string"
                }
            ],
            "name": "createNewEvent",
            "outputs": [],
            "stateMutability": "nonpayable",
            "type": "function"
        },
        {
            "inputs": [
                {
                    "internalType": "bytes32",
                    "name": "eventId",
                    "type": "bytes32"
                }
            ],
            "name": "createNewRSVP",
            "outputs": [],
            "stateMutability": "payable",
            "type": "function"
        },
        {
            "inputs": [
                {
                    "internalType": "bytes32",
                    "name": "",
                    "type": "bytes32"
                }
            ],
            "name": "idToEvent",
            "outputs": [
                {
                    "internalType": "bytes32",
                    "name": "eventId",
                    "type": "bytes32"
                },
                {
                    "internalType": "string",
                    "name": "eventDataCID",
                    "type": "string"
                },
                {
                    "internalType": "address",
                    "name": "eventOwner",
                    "type": "address"
                },
                {
                    "internalType": "uint256",
                    "name": "eventTimestamp",
                    "type": "uint256"
                },
                {
                    "internalType": "uint256",
                    "name": "deposit",
                    "type": "uint256"
                },
                {
                    "internalType": "uint256",
                    "name": "maxCapacity",
                    "type": "uint256"
                },
                {
                    "internalType": "bool",
                    "name": "paidOut",
                    "type": "bool"
                }
            ],
            "stateMutability": "view",
            "type": "function"
        },
        {
            "inputs": [
                {
                    "internalType": "bytes32",
                    "name": "eventId",
                    "type": "bytes32"
                }
            ],
            "name": "withdrawUnclaimedDeposits",
            "outputs": [],
            "stateMutability": "nonpayable",
            "type": "function"
        }
    ],
    "bytecode": "0x608060405234801561001057600080fd5b50612432806100206000396000f3fe6080604052600436106100545760003560e01c806292098c1461005957806317f0165a146100825780636dcdf2cd1461009e57806379747571146100c7578063909ef021146100f0578063acdbe01214610133575b600080fd5b34801561006557600080fd5b50610080600480360381019061007b9190611537565b61015c565b005b61009c600480360381019061009791906115f5565b6103c9565b005b3480156100aa57600080fd5b506100c560048036038101906100c09190611680565b610634565b005b3480156100d357600080fd5b506100ee60048036038101906100e991906115f5565b610b0b565b005b3480156100fc57600080fd5b50610117600480360381019061011291906115f5565b610fc3565b60405161012a9796959493929190611798565b60405180910390f35b34801561013f57600080fd5b5061015a600480360381019061015591906115f5565b6110ba565b005b60003330878787604051602001610177959493929190611877565b604051602081830303815290604052805190602001209050600080600083815260200190815260200160002060030154146101e7576040517f08c379a00000000000000000000000000000000000000000000000000000000081526004016101de90611922565b60405180910390fd5b60608060405180610120016040528084815260200186868080601f016020809104026020016040519081016040528093929190818152602001838380828437600081840152601f19601f8201169050808301925050505050505081526020013373ffffffffffffffffffffffffffffffffffffffff168152602001898152602001888152602001878152602001838152602001828152602001600015158152506000808581526020019081526020016000206000820151816000015560208201518160010190816102b89190611b7d565b5060408201518160020160006101000a81548173ffffffffffffffffffffffffffffffffffffffff021916908373ffffffffffffffffffffffffffffffffffffffff160217905550606082015181600301556080820151816004015560a0820151816005015560c082015181600601908051906020019061033a9291906113eb565b5060e08201518160070190805190602001906103579291906113eb565b506101008201518160080160006101000a81548160ff0219169083151502179055509050507f2553138c3f9c9008f266dbdbe9fc64f5b71e098d06ef714a190a65a8b9fc6bf383338a898b8a8a6040516103b79796959493929190611c8b565b60405180910390a15050505050505050565b6000806000838152602001908152602001600020905080600401543414610425576040517f08c379a000000000000000000000000000000000000000000000000000000000815260040161041c90611d41565b60405180910390fd5b8060030154421061046b576040517f08c379a000000000000000000000000000000000000000000000000000000000815260040161046290611dad565b60405180910390fd5b80600501548160060180549050106104b8576040517f08c379a00000000000000000000000000000000000000000000000000000000081526004016104af90611e19565b60405180910390fd5b60005b81600601805490508160ff161015610591573373ffffffffffffffffffffffffffffffffffffffff16826006018260ff16815481106104fd576104fc611e39565b5b9060005260206000200160009054906101000a900473ffffffffffffffffffffffffffffffffffffffff1673ffffffffffffffffffffffffffffffffffffffff160361057e576040517f08c379a000000000000000000000000000000000000000000000000000000000815260040161057590611eb4565b60405180910390fd5b808061058990611f10565b9150506104bb565b5080600601339080600181540180825580915050600190039060005260206000200160009091909190916101000a81548173ffffffffffffffffffffffffffffffffffffffff021916908373ffffffffffffffffffffffffffffffffffffffff1602179055507fb79f4240bbdd272d98e02a5db7f0cf156e5fc000961c517670a26eeeec63ed908233604051610628929190611f39565b60405180910390a15050565b600080600084815260200190815260200160002090508060020160009054906101000a900473ffffffffffffffffffffffffffffffffffffffff1673ffffffffffffffffffffffffffffffffffffffff163373ffffffffffffffffffffffffffffffffffffffff16146106dc576040517f08c379a00000000000000000000000000000000000000000000000000000000081526004016106d390611fae565b60405180910390fd5b600080600090505b82600601805490508160ff1610156107c6578373ffffffffffffffffffffffffffffffffffffffff16836006018260ff168154811061072657610725611e39565b5b9060005260206000200160009054906101000a900473ffffffffffffffffffffffffffffffffffffffff1673ffffffffffffffffffffffffffffffffffffffff16036107b357826006018160ff168154811061078557610784611e39565b5b9060005260206000200160009054906101000a900473ffffffffffffffffffffffffffffffffffffffff1691505b80806107be90611f10565b9150506106e4565b508273ffffffffffffffffffffffffffffffffffffffff168173ffffffffffffffffffffffffffffffffffffffff1614610835576040517f08c379a000000000000000000000000000000000000000000000000000000000815260040161082c9061201a565b60405180910390fd5b60005b82600701805490508160ff16101561090e578373ffffffffffffffffffffffffffffffffffffffff16836007018260ff168154811061087a57610879611e39565b5b9060005260206000200160009054906101000a900473ffffffffffffffffffffffffffffffffffffffff1673ffffffffffffffffffffffffffffffffffffffff16036108fb576040517f08c379a00000000000000000000000000000000000000000000000000000000081526004016108f290612086565b60405180910390fd5b808061090690611f10565b915050610838565b50600015158260080160009054906101000a900460ff16151514610967576040517f08c379a000000000000000000000000000000000000000000000000000000000815260040161095e906120f2565b60405180910390fd5b81600701839080600181540180825580915050600190039060005260206000200160009091909190916101000a81548173ffffffffffffffffffffffffffffffffffffffff021916908373ffffffffffffffffffffffffffffffffffffffff16021790555060008373ffffffffffffffffffffffffffffffffffffffff1683600401546040516109f690612143565b60006040518083038185875af1925050503d8060008114610a33576040519150601f19603f3d011682016040523d82523d6000602084013e610a38565b606091505b5050905080610a8b5782600701805480610a5557610a54612158565b5b6001900381819060005260206000200160006101000a81549073ffffffffffffffffffffffffffffffffffffffff021916905590555b80610acb576040517f08c379a0000000000000000000000000000000000000000000000000000000008152600401610ac2906121d3565b60405180910390fd5b7ff8d1583a733d83bdd3ef5464129d0a95a36d62b382d31c6d0467a61f4264381b8585604051610afc929190611f39565b60405180910390a15050505050565b60008060008381526020019081526020016000206040518061012001604052908160008201548152602001600182018054610b45906119a0565b80601f0160208091040260200160405190810160405280929190818152602001828054610b71906119a0565b8015610bbe5780601f10610b9357610100808354040283529160200191610bbe565b820191906000526020600020905b815481529060010190602001808311610ba157829003601f168201915b505050505081526020016002820160009054906101000a900473ffffffffffffffffffffffffffffffffffffffff1673ffffffffffffffffffffffffffffffffffffffff1673ffffffffffffffffffffffffffffffffffffffff16815260200160038201548152602001600482015481526020016005820154815260200160068201805480602002602001604051908101604052809291908181526020018280548015610cc057602002820191906000526020600020905b8160009054906101000a900473ffffffffffffffffffffffffffffffffffffffff1673ffffffffffffffffffffffffffffffffffffffff1681526020019060010190808311610c76575b5050505050815260200160078201805480602002602001604051908101604052809291908181526020018280548015610d4e57602002820191906000526020600020905b8160009054906101000a900473ffffffffffffffffffffffffffffffffffffffff1673ffffffffffffffffffffffffffffffffffffffff1681526020019060010190808311610d04575b505050505081526020016008820160009054906101000a900460ff161515151581525050905080610100015115610dba576040517f08c379a0000000000000000000000000000000000000000000000000000000008152600401610db19061223f565b60405180910390fd5b62093a808160600151610dcd919061225f565b421015610e0f576040517f08c379a0000000000000000000000000000000000000000000000000000000008152600401610e06906122df565b60405180910390fd5b806040015173ffffffffffffffffffffffffffffffffffffffff163373ffffffffffffffffffffffffffffffffffffffff1614610e81576040517f08c379a0000000000000000000000000000000000000000000000000000000008152600401610e789061234b565b60405180910390fd5b60008160e00151518260c0015151610e99919061236b565b90506000826080015182610ead919061239f565b905060018361010001901515908115158152505060003373ffffffffffffffffffffffffffffffffffffffff1682604051610ee790612143565b60006040518083038185875af1925050503d8060008114610f24576040519150601f19603f3d011682016040523d82523d6000602084013e610f29565b606091505b5050905080610f45576000846101000190151590811515815250505b80610f85576040517f08c379a0000000000000000000000000000000000000000000000000000000008152600401610f7c906121d3565b60405180910390fd5b7f393073ea1365f611c3d2f240c992960d2b99dc81715555d3fc40fc55ba80af9c85604051610fb491906123e1565b60405180910390a15050505050565b6000602052806000526040600020600091509050806000015490806001018054610fec906119a0565b80601f0160208091040260200160405190810160405280929190818152602001828054611018906119a0565b80156110655780601f1061103a57610100808354040283529160200191611065565b820191906000526020600020905b81548152906001019060200180831161104857829003601f168201915b5050505050908060020160009054906101000a900473ffffffffffffffffffffffffffffffffffffffff16908060030154908060040154908060050154908060080160009054906101000a900460ff16905087565b600080600083815260200190815260200160002060405180610120016040529081600082015481526020016001820180546110f4906119a0565b80601f0160208091040260200160405190810160405280929190818152602001828054611120906119a0565b801561116d5780601f106111425761010080835404028352916020019161116d565b820191906000526020600020905b81548152906001019060200180831161115057829003601f168201915b505050505081526020016002820160009054906101000a900473ffffffffffffffffffffffffffffffffffffffff1673ffffffffffffffffffffffffffffffffffffffff1673ffffffffffffffffffffffffffffffffffffffff1681526020016003820154815260200160048201548152602001600582015481526020016006820180548060200260200160405190810160405280929190818152602001828054801561126f57602002820191906000526020600020905b8160009054906101000a900473ffffffffffffffffffffffffffffffffffffffff1673ffffffffffffffffffffffffffffffffffffffff1681526020019060010190808311611225575b50505050508152602001600782018054806020026020016040519081016040528092919081815260200182805480156112fd57602002820191906000526020600020905b8160009054906101000a900473ffffffffffffffffffffffffffffffffffffffff1673ffffffffffffffffffffffffffffffffffffffff16815260200190600101908083116112b3575b505050505081526020016008820160009054906101000a900460ff1615151515815250509050806040015173ffffffffffffffffffffffffffffffffffffffff163373ffffffffffffffffffffffffffffffffffffffff1614611395576040517f08c379a000000000000000000000000000000000000000000000000000000000815260040161138c90611fae565b60405180910390fd5b60005b8160c00151518160ff1610156113e6576113d3838360c001518360ff16815181106113c6576113c5611e39565b5b6020026020010151610634565b80806113de90611f10565b915050611398565b505050565b828054828255906000526020600020908101928215611464579160200282015b828111156114635782518260006101000a81548173ffffffffffffffffffffffffffffffffffffffff021916908373ffffffffffffffffffffffffffffffffffffffff1602179055509160200191906001019061140b565b5b5090506114719190611475565b5090565b5b8082111561148e576000816000905550600101611476565b5090565b600080fd5b600080fd5b6000819050919050565b6114af8161149c565b81146114ba57600080fd5b50565b6000813590506114cc816114a6565b92915050565b600080fd5b600080fd5b600080fd5b60008083601f8401126114f7576114f66114d2565b5b8235905067ffffffffffffffff811115611514576115136114d7565b5b6020830191508360018202830111156115305761152f6114dc565b5b9250929050565b60008060008060006080868803121561155357611552611492565b5b6000611561888289016114bd565b9550506020611572888289016114bd565b9450506040611583888289016114bd565b935050606086013567ffffffffffffffff8111156115a4576115a3611497565b5b6115b0888289016114e1565b92509250509295509295909350565b6000819050919050565b6115d2816115bf565b81146115dd57600080fd5b50565b6000813590506115ef816115c9565b92915050565b60006020828403121561160b5761160a611492565b5b6000611619848285016115e0565b91505092915050565b600073ffffffffffffffffffffffffffffffffffffffff82169050919050565b600061164d82611622565b9050919050565b61165d81611642565b811461166857600080fd5b50565b60008135905061167a81611654565b92915050565b6000806040838503121561169757611696611492565b5b60006116a5858286016115e0565b92505060206116b68582860161166b565b9150509250929050565b6116c9816115bf565b82525050565b600081519050919050565b600082825260208201905092915050565b60005b838110156117095780820151818401526020810190506116ee565b60008484015250505050565b6000601f19601f8301169050919050565b6000611731826116cf565b61173b81856116da565b935061174b8185602086016116eb565b61175481611715565b840191505092915050565b61176881611642565b82525050565b6117778161149c565b82525050565b60008115159050919050565b6117928161177d565b82525050565b600060e0820190506117ad600083018a6116c0565b81810360208301526117bf8189611726565b90506117ce604083018861175f565b6117db606083018761176e565b6117e8608083018661176e565b6117f560a083018561176e565b61180260c0830184611789565b98975050505050505050565b60008160601b9050919050565b60006118268261180e565b9050919050565b60006118388261181b565b9050919050565b61185061184b82611642565b61182d565b82525050565b6000819050919050565b61187161186c8261149c565b611856565b82525050565b6000611883828861183f565b601482019150611893828761183f565b6014820191506118a38286611860565b6020820191506118b38285611860565b6020820191506118c38284611860565b6020820191508190509695505050505050565b7f414c524541445920524547495354455245440000000000000000000000000000600082015250565b600061190c6012836116da565b9150611917826118d6565b602082019050919050565b6000602082019050818103600083015261193b816118ff565b9050919050565b7f4e487b7100000000000000000000000000000000000000000000000000000000600052604160045260246000fd5b7f4e487b7100000000000000000000000000000000000000000000000000000000600052602260045260246000fd5b600060028204905060018216806119b857607f821691505b6020821081036119cb576119ca611971565b5b50919050565b60008190508160005260206000209050919050565b60006020601f8301049050919050565b600082821b905092915050565b600060088302611a337fffffffffffffffffffffffffffffffffffffffffffffffffffffffffffffffff826119f6565b611a3d86836119f6565b95508019841693508086168417925050509392505050565b6000819050919050565b6000611a7a611a75611a708461149c565b611a55565b61149c565b9050919050565b6000819050919050565b611a9483611a5f565b611aa8611aa082611a81565b848454611a03565b825550505050565b600090565b611abd611ab0565b611ac8818484611a8b565b505050565b5b81811015611aec57611ae1600082611ab5565b600181019050611ace565b5050565b601f821115611b3157611b02816119d1565b611b0b846119e6565b81016020851015611b1a578190505b611b2e611b26856119e6565b830182611acd565b50505b505050565b600082821c905092915050565b6000611b5460001984600802611b36565b1980831691505092915050565b6000611b6d8383611b43565b9150826002028217905092915050565b611b86826116cf565b67ffffffffffffffff811115611b9f57611b9e611942565b5b611ba982546119a0565b611bb4828285611af0565b600060209050601f831160018114611be75760008415611bd5578287015190505b611bdf8582611b61565b865550611c47565b601f198416611bf5866119d1565b60005b82811015611c1d57848901518255600182019150602085019450602081019050611bf8565b86831015611c3a5784890151611c36601f891682611b43565b8355505b6001600288020188555050505b505050505050565b82818337600083830152505050565b6000611c6a83856116da565b9350611c77838584611c4f565b611c8083611715565b840190509392505050565b600060c082019050611ca0600083018a6116c0565b611cad602083018961175f565b611cba604083018861176e565b611cc7606083018761176e565b611cd4608083018661176e565b81810360a0830152611ce7818486611c5e565b905098975050505050505050565b7f4e4f5420454e4f55474800000000000000000000000000000000000000000000600082015250565b6000611d2b600a836116da565b9150611d3682611cf5565b602082019050919050565b60006020820190508181036000830152611d5a81611d1e565b9050919050565b7f414c52454144592048415050454e440000000000000000000000000000000000600082015250565b6000611d97600f836116da565b9150611da282611d61565b602082019050919050565b60006020820190508181036000830152611dc681611d8a565b9050919050565b7f4556454e5420414c52454144592046554c4c0000000000000000000000000000600082015250565b6000611e036012836116da565b9150611e0e82611dcd565b602082019050919050565b60006020820190508181036000830152611e3281611df6565b9050919050565b7f4e487b7100000000000000000000000000000000000000000000000000000000600052603260045260246000fd5b7f414c524541445920434f4e4649524d4544000000000000000000000000000000600082015250565b6000611e9e6011836116da565b9150611ea982611e68565b602082019050919050565b60006020820190508181036000830152611ecd81611e91565b9050919050565b7f4e487b7100000000000000000000000000000000000000000000000000000000600052601160045260246000fd5b600060ff82169050919050565b6000611f1b82611f03565b915060ff8203611f2e57611f2d611ed4565b5b600182019050919050565b6000604082019050611f4e60008301856116c0565b611f5b602083018461175f565b9392505050565b7f4e6f7420617574686f72697a6564000000000000000000000000000000000000600082015250565b6000611f98600e836116da565b9150611fa382611f62565b602082019050919050565b60006020820190508181036000830152611fc781611f8b565b9050919050565b7f4e4f205253565020544f20434f4e4649524d0000000000000000000000000000600082015250565b60006120046012836116da565b915061200f82611fce565b602082019050919050565b6000602082019050818103600083015261203381611ff7565b9050919050565b7f414c524541445920434c41494d45440000000000000000000000000000000000600082015250565b6000612070600f836116da565b915061207b8261203a565b602082019050919050565b6000602082019050818103600083015261209f81612063565b9050919050565b7f414c52454144592050414944204f555400000000000000000000000000000000600082015250565b60006120dc6010836116da565b91506120e7826120a6565b602082019050919050565b6000602082019050818103600083015261210b816120cf565b9050919050565b600081905092915050565b50565b600061212d600083612112565b91506121388261211d565b600082019050919050565b600061214e82612120565b9150819050919050565b7f4e487b7100000000000000000000000000000000000000000000000000000000600052603160045260246000fd5b7f4661696c656420746f2073656e64204574686572000000000000000000000000600082015250565b60006121bd6014836116da565b91506121c882612187565b602082019050919050565b600060208201905081810360008301526121ec816121b0565b9050919050565b7f414c524541445920504149440000000000000000000000000000000000000000600082015250565b6000612229600c836116da565b9150612234826121f3565b602082019050919050565b600060208201905081810360008301526122588161221c565b9050919050565b600061226a8261149c565b91506122758361149c565b925082820190508082111561228d5761228c611ed4565b5b92915050565b7f544f4f204541524c590000000000000000000000000000000000000000000000600082015250565b60006122c96009836116da565b91506122d482612293565b602082019050919050565b600060208201905081810360008301526122f8816122bc565b9050919050565b7f4d555354204245204556454e54204f574e455200000000000000000000000000600082015250565b60006123356013836116da565b9150612340826122ff565b602082019050919050565b6000602082019050818103600083015261236481612328565b9050919050565b60006123768261149c565b91506123818361149c565b925082820390508181111561239957612398611ed4565b5b92915050565b60006123aa8261149c565b91506123b58361149c565b92508282026123c38161149c565b915082820484148315176123da576123d9611ed4565b5b5092915050565b60006020820190506123f660008301846116c0565b9291505056fea2646970667358221220a48a53c13ec689211d1b32bf8ccea959afc884f3664a9cd2859b0ddcd99ee7f264736f6c63430008110033",
    "linkReferences": {},
    "deployedLinkReferences": {}
}